{
  "contractName": "GenericERC20",
  "abi": [
    {
      "inputs": [
        {
          "internalType": "uint256",
          "name": "totalSupply",
          "type": "uint256"
        }
      ],
      "stateMutability": "nonpayable",
      "type": "constructor"
    },
    {
      "anonymous": false,
      "inputs": [
        {
          "indexed": true,
          "internalType": "address",
          "name": "owner",
          "type": "address"
        },
        {
          "indexed": true,
          "internalType": "address",
          "name": "spender",
          "type": "address"
        },
        {
          "indexed": false,
          "internalType": "uint256",
          "name": "value",
          "type": "uint256"
        }
      ],
      "name": "Approval",
      "type": "event"
    },
    {
      "anonymous": false,
      "inputs": [
        {
          "indexed": true,
          "internalType": "address",
          "name": "previousOwner",
          "type": "address"
        },
        {
          "indexed": true,
          "internalType": "address",
          "name": "newOwner",
          "type": "address"
        }
      ],
      "name": "OwnershipTransferred",
      "type": "event"
    },
    {
      "anonymous": false,
      "inputs": [
        {
          "indexed": true,
          "internalType": "address",
          "name": "from",
          "type": "address"
        },
        {
          "indexed": true,
          "internalType": "address",
          "name": "to",
          "type": "address"
        },
        {
          "indexed": false,
          "internalType": "uint256",
          "name": "value",
          "type": "uint256"
        }
      ],
      "name": "Transfer",
      "type": "event"
    },
    {
      "inputs": [
        {
          "internalType": "address",
          "name": "owner",
          "type": "address"
        },
        {
          "internalType": "address",
          "name": "spender",
          "type": "address"
        }
      ],
      "name": "allowance",
      "outputs": [
        {
          "internalType": "uint256",
          "name": "",
          "type": "uint256"
        }
      ],
      "stateMutability": "view",
      "type": "function",
      "constant": true
    },
    {
      "inputs": [
        {
          "internalType": "address",
          "name": "spender",
          "type": "address"
        },
        {
          "internalType": "uint256",
          "name": "amount",
          "type": "uint256"
        }
      ],
      "name": "approve",
      "outputs": [
        {
          "internalType": "bool",
          "name": "",
          "type": "bool"
        }
      ],
      "stateMutability": "nonpayable",
      "type": "function"
    },
    {
      "inputs": [
        {
          "internalType": "address",
          "name": "account",
          "type": "address"
        }
      ],
      "name": "balanceOf",
      "outputs": [
        {
          "internalType": "uint256",
          "name": "",
          "type": "uint256"
        }
      ],
      "stateMutability": "view",
      "type": "function",
      "constant": true
    },
    {
      "inputs": [],
      "name": "decimals",
      "outputs": [
        {
          "internalType": "uint8",
          "name": "",
          "type": "uint8"
        }
      ],
      "stateMutability": "view",
      "type": "function",
      "constant": true
    },
    {
      "inputs": [
        {
          "internalType": "address",
          "name": "spender",
          "type": "address"
        },
        {
          "internalType": "uint256",
          "name": "subtractedValue",
          "type": "uint256"
        }
      ],
      "name": "decreaseAllowance",
      "outputs": [
        {
          "internalType": "bool",
          "name": "",
          "type": "bool"
        }
      ],
      "stateMutability": "nonpayable",
      "type": "function"
    },
    {
      "inputs": [
        {
          "internalType": "address",
          "name": "spender",
          "type": "address"
        },
        {
          "internalType": "uint256",
          "name": "addedValue",
          "type": "uint256"
        }
      ],
      "name": "increaseAllowance",
      "outputs": [
        {
          "internalType": "bool",
          "name": "",
          "type": "bool"
        }
      ],
      "stateMutability": "nonpayable",
      "type": "function"
    },
    {
      "inputs": [],
      "name": "locked",
      "outputs": [
        {
          "internalType": "bool",
          "name": "",
          "type": "bool"
        }
      ],
      "stateMutability": "view",
      "type": "function",
      "constant": true
    },
    {
      "inputs": [],
      "name": "name",
      "outputs": [
        {
          "internalType": "string",
          "name": "",
          "type": "string"
        }
      ],
      "stateMutability": "view",
      "type": "function",
      "constant": true
    },
    {
      "inputs": [],
      "name": "owner",
      "outputs": [
        {
          "internalType": "address",
          "name": "",
          "type": "address"
        }
      ],
      "stateMutability": "view",
      "type": "function",
      "constant": true
    },
    {
      "inputs": [],
      "name": "renounceOwnership",
      "outputs": [],
      "stateMutability": "nonpayable",
      "type": "function"
    },
    {
      "inputs": [],
      "name": "symbol",
      "outputs": [
        {
          "internalType": "string",
          "name": "",
          "type": "string"
        }
      ],
      "stateMutability": "view",
      "type": "function",
      "constant": true
    },
    {
      "inputs": [],
      "name": "totalSupply",
      "outputs": [
        {
          "internalType": "uint256",
          "name": "",
          "type": "uint256"
        }
      ],
      "stateMutability": "view",
      "type": "function",
      "constant": true
    },
    {
      "inputs": [
        {
          "internalType": "address",
          "name": "newOwner",
          "type": "address"
        }
      ],
      "name": "transferOwnership",
      "outputs": [],
      "stateMutability": "nonpayable",
      "type": "function"
    },
    {
      "inputs": [
        {
          "internalType": "address",
          "name": "",
          "type": "address"
        }
      ],
      "name": "whitelist",
      "outputs": [
        {
          "internalType": "bool",
          "name": "",
          "type": "bool"
        }
      ],
      "stateMutability": "view",
      "type": "function",
      "constant": true
    },
    {
      "inputs": [],
      "name": "unlock",
      "outputs": [],
      "stateMutability": "nonpayable",
      "type": "function"
    },
    {
      "inputs": [],
      "name": "lock",
      "outputs": [],
      "stateMutability": "nonpayable",
      "type": "function"
    },
    {
      "inputs": [
        {
          "internalType": "address",
          "name": "_user",
          "type": "address"
        }
      ],
      "name": "addToWhitelist",
      "outputs": [],
      "stateMutability": "nonpayable",
      "type": "function"
    },
    {
      "inputs": [
        {
          "internalType": "address",
          "name": "_user",
          "type": "address"
        }
      ],
      "name": "removeFromWhitelist",
      "outputs": [],
      "stateMutability": "nonpayable",
      "type": "function"
    },
    {
      "inputs": [
        {
          "internalType": "address",
          "name": "to",
          "type": "address"
        },
        {
          "internalType": "uint256",
          "name": "amount",
          "type": "uint256"
        }
      ],
      "name": "transfer",
      "outputs": [
        {
          "internalType": "bool",
          "name": "",
          "type": "bool"
        }
      ],
      "stateMutability": "nonpayable",
      "type": "function"
    },
    {
      "inputs": [
        {
          "internalType": "address",
          "name": "from",
          "type": "address"
        },
        {
          "internalType": "address",
          "name": "to",
          "type": "address"
        },
        {
          "internalType": "uint256",
          "name": "amount",
          "type": "uint256"
        }
      ],
      "name": "transferFrom",
      "outputs": [
        {
          "internalType": "bool",
          "name": "",
          "type": "bool"
        }
      ],
      "stateMutability": "nonpayable",
      "type": "function"
    }
  ],
  "bytecode": "0x60806040523480156200001157600080fd5b506040516200235e3803806200235e833981810160405281019062000037919062000458565b6040518060400160405280600d81526020017f47656e65726963204552433230000000000000000000000000000000000000008152506040518060400160405280600481526020017f47453230000000000000000000000000000000000000000000000000000000008152508160039080519060200190620000bb92919062000391565b508060049080519060200190620000d492919062000391565b505050620000f7620000eb6200014060201b60201c565b6200014860201b60201c565b6001600760006101000a81548160ff0219169083151502179055506200013933670de0b6b3a7640000836200012d919062000584565b6200020e60201b60201c565b506200069d565b600033905090565b6000600560009054906101000a900473ffffffffffffffffffffffffffffffffffffffff16905081600560006101000a81548173ffffffffffffffffffffffffffffffffffffffff021916908373ffffffffffffffffffffffffffffffffffffffff1602179055508173ffffffffffffffffffffffffffffffffffffffff168173ffffffffffffffffffffffffffffffffffffffff167f8be0079c531659141344cd1fd0a4f28419497f9722a3daafe3b4186f6b6457e060405160405180910390a35050565b600073ffffffffffffffffffffffffffffffffffffffff168273ffffffffffffffffffffffffffffffffffffffff16141562000281576040517f08c379a00000000000000000000000000000000000000000000000000000000081526004016200027890620004d7565b60405180910390fd5b62000295600083836200038760201b60201c565b8060026000828254620002a9919062000527565b92505081905550806000808473ffffffffffffffffffffffffffffffffffffffff1673ffffffffffffffffffffffffffffffffffffffff168152602001908152602001600020600082825462000300919062000527565b925050819055508173ffffffffffffffffffffffffffffffffffffffff16600073ffffffffffffffffffffffffffffffffffffffff167fddf252ad1be2c89b69c2b068fc378daa952ba7f163c4a11628f55a4df523b3ef83604051620003679190620004f9565b60405180910390a362000383600083836200038c60201b60201c565b5050565b505050565b505050565b8280546200039f90620005ef565b90600052602060002090601f016020900481019282620003c357600085556200040f565b82601f10620003de57805160ff19168380011785556200040f565b828001600101855582156200040f579182015b828111156200040e578251825591602001919060010190620003f1565b5b5090506200041e919062000422565b5090565b5b808211156200043d57600081600090555060010162000423565b5090565b600081519050620004528162000683565b92915050565b6000602082840312156200046b57600080fd5b60006200047b8482850162000441565b91505092915050565b600062000493601f8362000516565b91507f45524332303a206d696e7420746f20746865207a65726f2061646472657373006000830152602082019050919050565b620004d181620005e5565b82525050565b60006020820190508181036000830152620004f28162000484565b9050919050565b6000602082019050620005106000830184620004c6565b92915050565b600082825260208201905092915050565b60006200053482620005e5565b91506200054183620005e5565b9250827fffffffffffffffffffffffffffffffffffffffffffffffffffffffffffffffff0382111562000579576200057862000625565b5b828201905092915050565b60006200059182620005e5565b91506200059e83620005e5565b9250817fffffffffffffffffffffffffffffffffffffffffffffffffffffffffffffffff0483118215151615620005da57620005d962000625565b5b828202905092915050565b6000819050919050565b600060028204905060018216806200060857607f821691505b602082108114156200061f576200061e62000654565b5b50919050565b7f4e487b7100000000000000000000000000000000000000000000000000000000600052601160045260246000fd5b7f4e487b7100000000000000000000000000000000000000000000000000000000600052602260045260246000fd5b6200068e81620005e5565b81146200069a57600080fd5b50565b611cb180620006ad6000396000f3fe608060405234801561001057600080fd5b506004361061012c5760003560e01c806395d89b41116100ad578063cf30901211610071578063cf30901214610347578063dd62ed3e14610365578063e43252d714610395578063f2fde38b146103b1578063f83d08ba146103cd5761012c565b806395d89b411461028f5780639b19251a146102ad578063a457c2d7146102dd578063a69df4b51461030d578063a9059cbb146103175761012c565b806339509351116100f457806339509351146101eb57806370a082311461021b578063715018a61461024b5780638ab1d681146102555780638da5cb5b146102715761012c565b806306fdde0314610131578063095ea7b31461014f57806318160ddd1461017f57806323b872dd1461019d578063313ce567146101cd575b600080fd5b6101396103d7565b604051610146919061193a565b60405180910390f35b610169600480360381019061016491906114e3565b610469565b604051610176919061191f565b60405180910390f35b610187610487565b6040516101949190611a7c565b60405180910390f35b6101b760048036038101906101b29190611494565b610491565b6040516101c4919061191f565b60405180910390f35b6101d5610550565b6040516101e29190611a97565b60405180910390f35b610205600480360381019061020091906114e3565b610559565b604051610212919061191f565b60405180910390f35b6102356004803603810190610230919061142f565b610605565b6040516102429190611a7c565b60405180910390f35b61025361064d565b005b61026f600480360381019061026a919061142f565b6106d5565b005b6102796107ac565b6040516102869190611904565b60405180910390f35b6102976107d6565b6040516102a4919061193a565b60405180910390f35b6102c760048036038101906102c2919061142f565b610868565b6040516102d4919061191f565b60405180910390f35b6102f760048036038101906102f291906114e3565b610888565b604051610304919061191f565b60405180910390f35b610315610973565b005b610331600480360381019061032c91906114e3565b610a0c565b60405161033e919061191f565b60405180910390f35b61034f610ac9565b60405161035c919061191f565b60405180910390f35b61037f600480360381019061037a9190611458565b610adc565b60405161038c9190611a7c565b60405180910390f35b6103af60048036038101906103aa919061142f565b610b63565b005b6103cb60048036038101906103c6919061142f565b610c3a565b005b6103d5610d32565b005b6060600380546103e690611bac565b80601f016020809104026020016040519081016040528092919081815260200182805461041290611bac565b801561045f5780601f106104345761010080835404028352916020019161045f565b820191906000526020600020905b81548152906001019060200180831161044257829003601f168201915b5050505050905090565b600061047d610476610dcb565b8484610dd3565b6001905092915050565b6000600254905090565b6000600760009054906101000a900460ff161561053c576104b06107ac565b73ffffffffffffffffffffffffffffffffffffffff168473ffffffffffffffffffffffffffffffffffffffff1614806105325750600660008573ffffffffffffffffffffffffffffffffffffffff1673ffffffffffffffffffffffffffffffffffffffff16815260200190815260200160002060009054906101000a900460ff165b61053b57600080fd5b5b610547848484610f9e565b90509392505050565b60006012905090565b60006105fb610566610dcb565b848460016000610574610dcb565b73ffffffffffffffffffffffffffffffffffffffff1673ffffffffffffffffffffffffffffffffffffffff16815260200190815260200160002060008873ffffffffffffffffffffffffffffffffffffffff1673ffffffffffffffffffffffffffffffffffffffff168152602001908152602001600020546105f69190611ace565b610dd3565b6001905092915050565b60008060008373ffffffffffffffffffffffffffffffffffffffff1673ffffffffffffffffffffffffffffffffffffffff168152602001908152602001600020549050919050565b610655610dcb565b73ffffffffffffffffffffffffffffffffffffffff166106736107ac565b73ffffffffffffffffffffffffffffffffffffffff16146106c9576040517f08c379a00000000000000000000000000000000000000000000000000000000081526004016106c0906119fc565b60405180910390fd5b6106d36000611096565b565b6106dd610dcb565b73ffffffffffffffffffffffffffffffffffffffff166106fb6107ac565b73ffffffffffffffffffffffffffffffffffffffff1614610751576040517f08c379a0000000000000000000000000000000000000000000000000000000008152600401610748906119fc565b60405180910390fd5b6000600660008373ffffffffffffffffffffffffffffffffffffffff1673ffffffffffffffffffffffffffffffffffffffff16815260200190815260200160002060006101000a81548160ff02191690831515021790555050565b6000600560009054906101000a900473ffffffffffffffffffffffffffffffffffffffff16905090565b6060600480546107e590611bac565b80601f016020809104026020016040519081016040528092919081815260200182805461081190611bac565b801561085e5780601f106108335761010080835404028352916020019161085e565b820191906000526020600020905b81548152906001019060200180831161084157829003601f168201915b5050505050905090565b60066020528060005260406000206000915054906101000a900460ff1681565b60008060016000610897610dcb565b73ffffffffffffffffffffffffffffffffffffffff1673ffffffffffffffffffffffffffffffffffffffff16815260200190815260200160002060008573ffffffffffffffffffffffffffffffffffffffff1673ffffffffffffffffffffffffffffffffffffffff16815260200190815260200160002054905082811015610954576040517f08c379a000000000000000000000000000000000000000000000000000000000815260040161094b90611a5c565b60405180910390fd5b61096861095f610dcb565b85858403610dd3565b600191505092915050565b61097b610dcb565b73ffffffffffffffffffffffffffffffffffffffff166109996107ac565b73ffffffffffffffffffffffffffffffffffffffff16146109ef576040517f08c379a00000000000000000000000000000000000000000000000000000000081526004016109e6906119fc565b60405180910390fd5b6000600760006101000a81548160ff021916908315150217905550565b6000600760009054906101000a900460ff1615610ab757610a2b6107ac565b73ffffffffffffffffffffffffffffffffffffffff163373ffffffffffffffffffffffffffffffffffffffff161480610aad5750600660003373ffffffffffffffffffffffffffffffffffffffff1673ffffffffffffffffffffffffffffffffffffffff16815260200190815260200160002060009054906101000a900460ff165b610ab657600080fd5b5b610ac1838361115c565b905092915050565b600760009054906101000a900460ff1681565b6000600160008473ffffffffffffffffffffffffffffffffffffffff1673ffffffffffffffffffffffffffffffffffffffff16815260200190815260200160002060008373ffffffffffffffffffffffffffffffffffffffff1673ffffffffffffffffffffffffffffffffffffffff16815260200190815260200160002054905092915050565b610b6b610dcb565b73ffffffffffffffffffffffffffffffffffffffff16610b896107ac565b73ffffffffffffffffffffffffffffffffffffffff1614610bdf576040517f08c379a0000000000000000000000000000000000000000000000000000000008152600401610bd6906119fc565b60405180910390fd5b6001600660008373ffffffffffffffffffffffffffffffffffffffff1673ffffffffffffffffffffffffffffffffffffffff16815260200190815260200160002060006101000a81548160ff02191690831515021790555050565b610c42610dcb565b73ffffffffffffffffffffffffffffffffffffffff16610c606107ac565b73ffffffffffffffffffffffffffffffffffffffff1614610cb6576040517f08c379a0000000000000000000000000000000000000000000000000000000008152600401610cad906119fc565b60405180910390fd5b600073ffffffffffffffffffffffffffffffffffffffff168173ffffffffffffffffffffffffffffffffffffffff161415610d26576040517f08c379a0000000000000000000000000000000000000000000000000000000008152600401610d1d9061197c565b60405180910390fd5b610d2f81611096565b50565b610d3a610dcb565b73ffffffffffffffffffffffffffffffffffffffff16610d586107ac565b73ffffffffffffffffffffffffffffffffffffffff1614610dae576040517f08c379a0000000000000000000000000000000000000000000000000000000008152600401610da5906119fc565b60405180910390fd5b6001600760006101000a81548160ff021916908315150217905550565b600033905090565b600073ffffffffffffffffffffffffffffffffffffffff168373ffffffffffffffffffffffffffffffffffffffff161415610e43576040517f08c379a0000000000000000000000000000000000000000000000000000000008152600401610e3a90611a3c565b60405180910390fd5b600073ffffffffffffffffffffffffffffffffffffffff168273ffffffffffffffffffffffffffffffffffffffff161415610eb3576040517f08c379a0000000000000000000000000000000000000000000000000000000008152600401610eaa9061199c565b60405180910390fd5b80600160008573ffffffffffffffffffffffffffffffffffffffff1673ffffffffffffffffffffffffffffffffffffffff16815260200190815260200160002060008473ffffffffffffffffffffffffffffffffffffffff1673ffffffffffffffffffffffffffffffffffffffff168152602001908152602001600020819055508173ffffffffffffffffffffffffffffffffffffffff168373ffffffffffffffffffffffffffffffffffffffff167f8c5be1e5ebec7d5bd14f71427d1e84f3dd0314c0f7b2291e5b200ac8c7c3b92583604051610f919190611a7c565b60405180910390a3505050565b6000610fab84848461117a565b6000600160008673ffffffffffffffffffffffffffffffffffffffff1673ffffffffffffffffffffffffffffffffffffffff1681526020019081526020016000206000610ff6610dcb565b73ffffffffffffffffffffffffffffffffffffffff1673ffffffffffffffffffffffffffffffffffffffff16815260200190815260200160002054905082811015611076576040517f08c379a000000000000000000000000000000000000000000000000000000000815260040161106d906119dc565b60405180910390fd5b61108a85611082610dcb565b858403610dd3565b60019150509392505050565b6000600560009054906101000a900473ffffffffffffffffffffffffffffffffffffffff16905081600560006101000a81548173ffffffffffffffffffffffffffffffffffffffff021916908373ffffffffffffffffffffffffffffffffffffffff1602179055508173ffffffffffffffffffffffffffffffffffffffff168173ffffffffffffffffffffffffffffffffffffffff167f8be0079c531659141344cd1fd0a4f28419497f9722a3daafe3b4186f6b6457e060405160405180910390a35050565b6000611170611169610dcb565b848461117a565b6001905092915050565b600073ffffffffffffffffffffffffffffffffffffffff168373ffffffffffffffffffffffffffffffffffffffff1614156111ea576040517f08c379a00000000000000000000000000000000000000000000000000000000081526004016111e190611a1c565b60405180910390fd5b600073ffffffffffffffffffffffffffffffffffffffff168273ffffffffffffffffffffffffffffffffffffffff16141561125a576040517f08c379a00000000000000000000000000000000000000000000000000000000081526004016112519061195c565b60405180910390fd5b6112658383836113fb565b60008060008573ffffffffffffffffffffffffffffffffffffffff1673ffffffffffffffffffffffffffffffffffffffff168152602001908152602001600020549050818110156112eb576040517f08c379a00000000000000000000000000000000000000000000000000000000081526004016112e2906119bc565b60405180910390fd5b8181036000808673ffffffffffffffffffffffffffffffffffffffff1673ffffffffffffffffffffffffffffffffffffffff16815260200190815260200160002081905550816000808573ffffffffffffffffffffffffffffffffffffffff1673ffffffffffffffffffffffffffffffffffffffff168152602001908152602001600020600082825461137e9190611ace565b925050819055508273ffffffffffffffffffffffffffffffffffffffff168473ffffffffffffffffffffffffffffffffffffffff167fddf252ad1be2c89b69c2b068fc378daa952ba7f163c4a11628f55a4df523b3ef846040516113e29190611a7c565b60405180910390a36113f5848484611400565b50505050565b505050565b505050565b60008135905061141481611c4d565b92915050565b60008135905061142981611c64565b92915050565b60006020828403121561144157600080fd5b600061144f84828501611405565b91505092915050565b6000806040838503121561146b57600080fd5b600061147985828601611405565b925050602061148a85828601611405565b9150509250929050565b6000806000606084860312156114a957600080fd5b60006114b786828701611405565b93505060206114c886828701611405565b92505060406114d98682870161141a565b9150509250925092565b600080604083850312156114f657600080fd5b600061150485828601611405565b92505060206115158582860161141a565b9150509250929050565b61152881611b24565b82525050565b61153781611b36565b82525050565b600061154882611ab2565b6115528185611abd565b9350611562818560208601611b79565b61156b81611c3c565b840191505092915050565b6000611583602383611abd565b91507f45524332303a207472616e7366657220746f20746865207a65726f206164647260008301527f65737300000000000000000000000000000000000000000000000000000000006020830152604082019050919050565b60006115e9602683611abd565b91507f4f776e61626c653a206e6577206f776e657220697320746865207a65726f206160008301527f64647265737300000000000000000000000000000000000000000000000000006020830152604082019050919050565b600061164f602283611abd565b91507f45524332303a20617070726f766520746f20746865207a65726f20616464726560008301527f73730000000000000000000000000000000000000000000000000000000000006020830152604082019050919050565b60006116b5602683611abd565b91507f45524332303a207472616e7366657220616d6f756e742065786365656473206260008301527f616c616e636500000000000000000000000000000000000000000000000000006020830152604082019050919050565b600061171b602883611abd565b91507f45524332303a207472616e7366657220616d6f756e742065786365656473206160008301527f6c6c6f77616e63650000000000000000000000000000000000000000000000006020830152604082019050919050565b6000611781602083611abd565b91507f4f776e61626c653a2063616c6c6572206973206e6f7420746865206f776e65726000830152602082019050919050565b60006117c1602583611abd565b91507f45524332303a207472616e736665722066726f6d20746865207a65726f20616460008301527f64726573730000000000000000000000000000000000000000000000000000006020830152604082019050919050565b6000611827602483611abd565b91507f45524332303a20617070726f76652066726f6d20746865207a65726f2061646460008301527f72657373000000000000000000000000000000000000000000000000000000006020830152604082019050919050565b600061188d602583611abd565b91507f45524332303a2064656372656173656420616c6c6f77616e63652062656c6f7760008301527f207a65726f0000000000000000000000000000000000000000000000000000006020830152604082019050919050565b6118ef81611b62565b82525050565b6118fe81611b6c565b82525050565b6000602082019050611919600083018461151f565b92915050565b6000602082019050611934600083018461152e565b92915050565b60006020820190508181036000830152611954818461153d565b905092915050565b6000602082019050818103600083015261197581611576565b9050919050565b60006020820190508181036000830152611995816115dc565b9050919050565b600060208201905081810360008301526119b581611642565b9050919050565b600060208201905081810360008301526119d5816116a8565b9050919050565b600060208201905081810360008301526119f58161170e565b9050919050565b60006020820190508181036000830152611a1581611774565b9050919050565b60006020820190508181036000830152611a35816117b4565b9050919050565b60006020820190508181036000830152611a558161181a565b9050919050565b60006020820190508181036000830152611a7581611880565b9050919050565b6000602082019050611a9160008301846118e6565b92915050565b6000602082019050611aac60008301846118f5565b92915050565b600081519050919050565b600082825260208201905092915050565b6000611ad982611b62565b9150611ae483611b62565b9250827fffffffffffffffffffffffffffffffffffffffffffffffffffffffffffffffff03821115611b1957611b18611bde565b5b828201905092915050565b6000611b2f82611b42565b9050919050565b60008115159050919050565b600073ffffffffffffffffffffffffffffffffffffffff82169050919050565b6000819050919050565b600060ff82169050919050565b60005b83811015611b97578082015181840152602081019050611b7c565b83811115611ba6576000848401525b50505050565b60006002820490506001821680611bc457607f821691505b60208210811415611bd857611bd7611c0d565b5b50919050565b7f4e487b7100000000000000000000000000000000000000000000000000000000600052601160045260246000fd5b7f4e487b7100000000000000000000000000000000000000000000000000000000600052602260045260246000fd5b6000601f19601f8301169050919050565b611c5681611b24565b8114611c6157600080fd5b50565b611c6d81611b62565b8114611c7857600080fd5b5056fea2646970667358221220e1a584893d8941343a04b90cf2cbcb1d2abb01528dad233d44679358723d0b1c64736f6c63430008000033",
  "immutableReferences": {},
  "source": "// SPDX-License-Identifier: MIT\r\npragma solidity ^0.8.0;\r\n\r\nimport \"@openzeppelin/contracts/utils/math/SafeMath.sol\";\r\nimport \"@openzeppelin/contracts/token/ERC20/ERC20.sol\";\r\nimport \"@openzeppelin/contracts/access/Ownable.sol\";\r\n\r\ncontract GenericERC20 is ERC20(\"Generic ERC20\", \"GE20\"), Ownable {\r\n\r\n    mapping(address => bool) public whitelist;\r\n    bool public locked;\r\n    \r\n    constructor(uint256 totalSupply) {\r\n        locked = true;\r\n        _mint(msg.sender, totalSupply * (10 ** 18));\r\n    }\r\n\r\n    function unlock() public onlyOwner {\r\n        locked = false;\r\n    } \r\n\r\n    function lock() public onlyOwner {\r\n        locked = true;\r\n    }\r\n\r\n    function addToWhitelist(address _user) public onlyOwner {\r\n        whitelist[_user] = true;\r\n    }\r\n\r\n    function removeFromWhitelist(address _user) public onlyOwner {\r\n        whitelist[_user] = false;\r\n    }\r\n    \r\n    function transfer(address to, uint256 amount) public override returns (bool) {\r\n        if(locked) {\r\n            require(msg.sender == owner() || whitelist[msg.sender]);\r\n        }\r\n        return super.transfer(to, amount);\r\n    }\r\n\r\n    function transferFrom(address from, address to, uint256 amount) public override returns (bool) {\r\n        if(locked) {\r\n            require(from == owner() || whitelist[from]);\r\n        }\r\n        return super.transferFrom(from, to, amount);\r\n    }\r\n   \r\n}",
  "sourcePath": "H:\\erc-20-token\\erc-20-token\\contracts\\GenericERC20.sol",
  "compiler": {
    "name": "solc",
    "version": "0.8.0+commit.c7dfd78e.Emscripten.clang"
  },
  "schemaVersion": "3.4.6",
  "updatedAt": "2022-09-20T16:01:28.257Z",
  "networkType": "ethereum",
  "devdoc": {
    "kind": "dev",
    "methods": {
      "allowance(address,address)": {
        "details": "See {IERC20-allowance}."
      },
      "approve(address,uint256)": {
        "details": "See {IERC20-approve}. Requirements: - `spender` cannot be the zero address."
      },
      "balanceOf(address)": {
        "details": "See {IERC20-balanceOf}."
      },
      "decimals()": {
        "details": "Returns the number of decimals used to get its user representation. For example, if `decimals` equals `2`, a balance of `505` tokens should be displayed to a user as `5.05` (`505 / 10 ** 2`). Tokens usually opt for a value of 18, imitating the relationship between Ether and Wei. This is the value {ERC20} uses, unless this function is overridden; NOTE: This information is only used for _display_ purposes: it in no way affects any of the arithmetic of the contract, including {IERC20-balanceOf} and {IERC20-transfer}."
      },
      "decreaseAllowance(address,uint256)": {
        "details": "Atomically decreases the allowance granted to `spender` by the caller. This is an alternative to {approve} that can be used as a mitigation for problems described in {IERC20-approve}. Emits an {Approval} event indicating the updated allowance. Requirements: - `spender` cannot be the zero address. - `spender` must have allowance for the caller of at least `subtractedValue`."
      },
      "increaseAllowance(address,uint256)": {
        "details": "Atomically increases the allowance granted to `spender` by the caller. This is an alternative to {approve} that can be used as a mitigation for problems described in {IERC20-approve}. Emits an {Approval} event indicating the updated allowance. Requirements: - `spender` cannot be the zero address."
      },
      "name()": {
        "details": "Returns the name of the token."
      },
      "owner()": {
        "details": "Returns the address of the current owner."
      },
      "renounceOwnership()": {
        "details": "Leaves the contract without owner. It will not be possible to call `onlyOwner` functions anymore. Can only be called by the current owner. NOTE: Renouncing ownership will leave the contract without an owner, thereby removing any functionality that is only available to the owner."
      },
      "symbol()": {
        "details": "Returns the symbol of the token, usually a shorter version of the name."
      },
      "totalSupply()": {
        "details": "See {IERC20-totalSupply}."
      },
      "transferOwnership(address)": {
        "details": "Transfers ownership of the contract to a new account (`newOwner`). Can only be called by the current owner."
      }
    },
    "version": 1
  },
  "userdoc": {
    "kind": "user",
    "methods": {},
    "version": 1
  }
}