{
  "contractName": "GenericERC20ICOSale",
  "abi": [
    {
      "inputs": [
        {
          "internalType": "uint256",
          "name": "rate",
          "type": "uint256"
        },
        {
          "internalType": "address payable",
          "name": "wallet",
          "type": "address"
        },
        {
          "internalType": "contract IERC20",
          "name": "token",
          "type": "address"
        }
      ],
      "stateMutability": "nonpayable",
      "type": "constructor"
    },
    {
      "anonymous": false,
      "inputs": [
        {
          "indexed": true,
          "internalType": "address",
          "name": "previousOwner",
          "type": "address"
        },
        {
          "indexed": true,
          "internalType": "address",
          "name": "newOwner",
          "type": "address"
        }
      ],
      "name": "OwnershipTransferred",
      "type": "event"
    },
    {
      "anonymous": false,
      "inputs": [
        {
          "indexed": true,
          "internalType": "address",
          "name": "purchaser",
          "type": "address"
        },
        {
          "indexed": true,
          "internalType": "address",
          "name": "beneficiary",
          "type": "address"
        },
        {
          "indexed": false,
          "internalType": "uint256",
          "name": "value",
          "type": "uint256"
        },
        {
          "indexed": false,
          "internalType": "uint256",
          "name": "amount",
          "type": "uint256"
        }
      ],
      "name": "TokensPurchased",
      "type": "event"
    },
    {
      "stateMutability": "payable",
      "type": "fallback",
      "payable": true
    },
    {
      "inputs": [],
      "name": "GE20",
      "outputs": [
        {
          "internalType": "contract IERC20",
          "name": "",
          "type": "address"
        }
      ],
      "stateMutability": "view",
      "type": "function",
      "constant": true
    },
    {
      "inputs": [
        {
          "internalType": "address",
          "name": "beneficiary",
          "type": "address"
        }
      ],
      "name": "buyTokens",
      "outputs": [],
      "stateMutability": "payable",
      "type": "function",
      "payable": true
    },
    {
      "inputs": [],
      "name": "owner",
      "outputs": [
        {
          "internalType": "address",
          "name": "",
          "type": "address"
        }
      ],
      "stateMutability": "view",
      "type": "function",
      "constant": true
    },
    {
      "inputs": [],
      "name": "rate",
      "outputs": [
        {
          "internalType": "uint256",
          "name": "",
          "type": "uint256"
        }
      ],
      "stateMutability": "view",
      "type": "function",
      "constant": true
    },
    {
      "inputs": [],
      "name": "renounceOwnership",
      "outputs": [],
      "stateMutability": "nonpayable",
      "type": "function"
    },
    {
      "inputs": [],
      "name": "token",
      "outputs": [
        {
          "internalType": "contract IERC20",
          "name": "",
          "type": "address"
        }
      ],
      "stateMutability": "view",
      "type": "function",
      "constant": true
    },
    {
      "inputs": [
        {
          "internalType": "address",
          "name": "newOwner",
          "type": "address"
        }
      ],
      "name": "transferOwnership",
      "outputs": [],
      "stateMutability": "nonpayable",
      "type": "function"
    },
    {
      "inputs": [],
      "name": "wallet",
      "outputs": [
        {
          "internalType": "address payable",
          "name": "",
          "type": "address"
        }
      ],
      "stateMutability": "view",
      "type": "function",
      "constant": true
    },
    {
      "inputs": [],
      "name": "weiRaised",
      "outputs": [
        {
          "internalType": "uint256",
          "name": "",
          "type": "uint256"
        }
      ],
      "stateMutability": "view",
      "type": "function",
      "constant": true
    },
    {
      "inputs": [],
      "name": "bnbRaised",
      "outputs": [
        {
          "internalType": "uint256",
          "name": "",
          "type": "uint256"
        }
      ],
      "stateMutability": "view",
      "type": "function",
      "constant": true
    },
    {
      "inputs": [],
      "name": "endSale",
      "outputs": [],
      "stateMutability": "nonpayable",
      "type": "function"
    }
  ],
  "bytecode": "0x60806040523480156200001157600080fd5b5060405162001cee38038062001cee8339818101604052810190620000379190620003b8565b82828260016000819055506000831162000088576040517f08c379a00000000000000000000000000000000000000000000000000000000081526004016200007f9062000542565b60405180910390fd5b600073ffffffffffffffffffffffffffffffffffffffff168273ffffffffffffffffffffffffffffffffffffffff161415620000fb576040517f08c379a0000000000000000000000000000000000000000000000000000000008152600401620000f29062000564565b60405180910390fd5b600073ffffffffffffffffffffffffffffffffffffffff168173ffffffffffffffffffffffffffffffffffffffff1614156200016e576040517f08c379a0000000000000000000000000000000000000000000000000000000008152600401620001659062000520565b60405180910390fd5b8260038190555081600260006101000a81548173ffffffffffffffffffffffffffffffffffffffff021916908373ffffffffffffffffffffffffffffffffffffffff16021790555080600160006101000a81548173ffffffffffffffffffffffffffffffffffffffff021916908373ffffffffffffffffffffffffffffffffffffffff1602179055505050506200021a6200020e620002a560201b60201c565b620002ad60201b60201c565b81600760006101000a81548173ffffffffffffffffffffffffffffffffffffffff021916908373ffffffffffffffffffffffffffffffffffffffff16021790555080600660006101000a81548173ffffffffffffffffffffffffffffffffffffffff021916908373ffffffffffffffffffffffffffffffffffffffff1602179055505050506200064b565b600033905090565b6000600560009054906101000a900473ffffffffffffffffffffffffffffffffffffffff16905081600560006101000a81548173ffffffffffffffffffffffffffffffffffffffff021916908373ffffffffffffffffffffffffffffffffffffffff1602179055508173ffffffffffffffffffffffffffffffffffffffff168173ffffffffffffffffffffffffffffffffffffffff167f8be0079c531659141344cd1fd0a4f28419497f9722a3daafe3b4186f6b6457e060405160405180910390a35050565b6000815190506200038481620005fd565b92915050565b6000815190506200039b8162000617565b92915050565b600081519050620003b28162000631565b92915050565b600080600060608486031215620003ce57600080fd5b6000620003de86828701620003a1565b9350506020620003f18682870162000373565b925050604062000404868287016200038a565b9150509250925092565b60006200041d60248362000586565b91507f43726f776473616c653a20746f6b656e20697320746865207a65726f2061646460008301527f72657373000000000000000000000000000000000000000000000000000000006020830152604082019050919050565b60006200048560148362000586565b91507f43726f776473616c653a207261746520697320300000000000000000000000006000830152602082019050919050565b6000620004c760258362000586565b91507f43726f776473616c653a2077616c6c657420697320746865207a65726f20616460008301527f64726573730000000000000000000000000000000000000000000000000000006020830152604082019050919050565b600060208201905081810360008301526200053b816200040e565b9050919050565b600060208201905081810360008301526200055d8162000476565b9050919050565b600060208201905081810360008301526200057f81620004b8565b9050919050565b600082825260208201905092915050565b6000620005a482620005d3565b9050919050565b6000620005b882620005d3565b9050919050565b6000620005cc8262000597565b9050919050565b600073ffffffffffffffffffffffffffffffffffffffff82169050919050565b6000819050919050565b6200060881620005ab565b81146200061457600080fd5b50565b6200062281620005bf565b81146200062e57600080fd5b50565b6200063c81620005f3565b81146200064857600080fd5b50565b611693806200065b6000396000f3fe6080604052600436106100a05760003560e01c80637e0c51e8116100645780637e0c51e8146101625780638da5cb5b1461018d578063d47a2010146101b8578063ec8ac4d8146101e3578063f2fde38b146101ff578063fc0c546a14610228576100a1565b80632c4e722e146100b3578063380d831b146100de5780634042b66f146100f5578063521eb27314610120578063715018a61461014b576100a1565b5b6100b16100ac610253565b61025b565b005b3480156100bf57600080fd5b506100c8610381565b6040516100d591906113cb565b60405180910390f35b3480156100ea57600080fd5b506100f361038b565b005b34801561010157600080fd5b5061010a610603565b60405161011791906113cb565b60405180910390f35b34801561012c57600080fd5b5061013561060d565b6040516101429190611221565b60405180910390f35b34801561015757600080fd5b50610160610637565b005b34801561016e57600080fd5b506101776106bf565b604051610184919061128e565b60405180910390f35b34801561019957600080fd5b506101a26106e5565b6040516101af9190611206565b60405180910390f35b3480156101c457600080fd5b506101cd61070f565b6040516101da91906113cb565b60405180910390f35b6101fd60048036038101906101f89190610e27565b61025b565b005b34801561020b57600080fd5b5061022660048036038101906102219190610e27565b610739565b005b34801561023457600080fd5b5061023d610831565b60405161024a919061128e565b60405180910390f35b600033905090565b600260005414156102a1576040517f08c379a00000000000000000000000000000000000000000000000000000000081526004016102989061138b565b60405180910390fd5b600260008190555060003490506102b8828261085b565b60006102c382610913565b90506102da8260045461093190919063ffffffff16565b6004819055506102ea8382610947565b8273ffffffffffffffffffffffffffffffffffffffff16610309610253565b73ffffffffffffffffffffffffffffffffffffffff167f6faf93231a456e552dbc9961f58d9713ee4f2e69d15f1975b050ef0911053a7b84846040516103509291906113e6565b60405180910390a36103628383610955565b61036a610959565b61037483836109c4565b5050600160008190555050565b6000600354905090565b610393610253565b73ffffffffffffffffffffffffffffffffffffffff166103b16106e5565b73ffffffffffffffffffffffffffffffffffffffff1614610407576040517f08c379a00000000000000000000000000000000000000000000000000000000081526004016103fe9061130b565b60405180910390fd5b600061041161070f565b9050600760009054906101000a900473ffffffffffffffffffffffffffffffffffffffff1673ffffffffffffffffffffffffffffffffffffffff166108fc829081150290604051600060405180830381858888f1935050505015801561047b573d6000803e3d6000fd5b50600660009054906101000a900473ffffffffffffffffffffffffffffffffffffffff1673ffffffffffffffffffffffffffffffffffffffff1663a9059cbb600760009054906101000a900473ffffffffffffffffffffffffffffffffffffffff16600660009054906101000a900473ffffffffffffffffffffffffffffffffffffffff1673ffffffffffffffffffffffffffffffffffffffff166370a08231306040518263ffffffff1660e01b81526004016105389190611206565b60206040518083038186803b15801561055057600080fd5b505afa158015610564573d6000803e3d6000fd5b505050506040513d601f19601f820116820180604052508101906105889190610e79565b6040518363ffffffff1660e01b81526004016105a592919061123c565b602060405180830381600087803b1580156105bf57600080fd5b505af11580156105d3573d6000803e3d6000fd5b505050506040513d601f19601f820116820180604052508101906105f79190610e50565b61060057600080fd5b50565b6000600454905090565b6000600260009054906101000a900473ffffffffffffffffffffffffffffffffffffffff16905090565b61063f610253565b73ffffffffffffffffffffffffffffffffffffffff1661065d6106e5565b73ffffffffffffffffffffffffffffffffffffffff16146106b3576040517f08c379a00000000000000000000000000000000000000000000000000000000081526004016106aa9061130b565b60405180910390fd5b6106bd60006109c8565b565b600660009054906101000a900473ffffffffffffffffffffffffffffffffffffffff1681565b6000600560009054906101000a900473ffffffffffffffffffffffffffffffffffffffff16905090565b60008030905060008173ffffffffffffffffffffffffffffffffffffffff16319050809250505090565b610741610253565b73ffffffffffffffffffffffffffffffffffffffff1661075f6106e5565b73ffffffffffffffffffffffffffffffffffffffff16146107b5576040517f08c379a00000000000000000000000000000000000000000000000000000000081526004016107ac9061130b565b60405180910390fd5b600073ffffffffffffffffffffffffffffffffffffffff168173ffffffffffffffffffffffffffffffffffffffff161415610825576040517f08c379a000000000000000000000000000000000000000000000000000000000815260040161081c906112cb565b60405180910390fd5b61082e816109c8565b50565b6000600160009054906101000a900473ffffffffffffffffffffffffffffffffffffffff16905090565b600073ffffffffffffffffffffffffffffffffffffffff168273ffffffffffffffffffffffffffffffffffffffff1614156108cb576040517f08c379a00000000000000000000000000000000000000000000000000000000081526004016108c29061132b565b60405180910390fd5b600081141561090f576040517f08c379a0000000000000000000000000000000000000000000000000000000008152600401610906906113ab565b60405180910390fd5b5050565b600061092a60035483610a8e90919063ffffffff16565b9050919050565b6000818361093f9190611441565b905092915050565b6109518282610aa4565b5050565b5050565b600260009054906101000a900473ffffffffffffffffffffffffffffffffffffffff1673ffffffffffffffffffffffffffffffffffffffff166108fc349081150290604051600060405180830381858888f193505050501580156109c1573d6000803e3d6000fd5b50565b5050565b6000600560009054906101000a900473ffffffffffffffffffffffffffffffffffffffff16905081600560006101000a81548173ffffffffffffffffffffffffffffffffffffffff021916908373ffffffffffffffffffffffffffffffffffffffff1602179055508173ffffffffffffffffffffffffffffffffffffffff168173ffffffffffffffffffffffffffffffffffffffff167f8be0079c531659141344cd1fd0a4f28419497f9722a3daafe3b4186f6b6457e060405160405180910390a35050565b60008183610a9c9190611497565b905092915050565b610af18282600160009054906101000a900473ffffffffffffffffffffffffffffffffffffffff1673ffffffffffffffffffffffffffffffffffffffff16610af59092919063ffffffff16565b5050565b610b768363a9059cbb60e01b8484604051602401610b14929190611265565b604051602081830303815290604052907bffffffffffffffffffffffffffffffffffffffffffffffffffffffff19166020820180517bffffffffffffffffffffffffffffffffffffffffffffffffffffffff8381831617835250505050610b7b565b505050565b6000610bdd826040518060400160405280602081526020017f5361666545524332303a206c6f772d6c6576656c2063616c6c206661696c65648152508573ffffffffffffffffffffffffffffffffffffffff16610c429092919063ffffffff16565b9050600081511115610c3d5780806020019051810190610bfd9190610e50565b610c3c576040517f08c379a0000000000000000000000000000000000000000000000000000000008152600401610c339061136b565b60405180910390fd5b5b505050565b6060610c518484600085610c5a565b90509392505050565b606082471015610c9f576040517f08c379a0000000000000000000000000000000000000000000000000000000008152600401610c96906112eb565b60405180910390fd5b610ca885610d6e565b610ce7576040517f08c379a0000000000000000000000000000000000000000000000000000000008152600401610cde9061134b565b60405180910390fd5b6000808673ffffffffffffffffffffffffffffffffffffffff168587604051610d1091906111ef565b60006040518083038185875af1925050503d8060008114610d4d576040519150601f19603f3d011682016040523d82523d6000602084013e610d52565b606091505b5091509150610d62828286610d81565b92505050949350505050565b600080823b905060008111915050919050565b60608315610d9157829050610de1565b600083511115610da45782518084602001fd5b816040517f08c379a0000000000000000000000000000000000000000000000000000000008152600401610dd891906112a9565b60405180910390fd5b9392505050565b600081359050610df781611618565b92915050565b600081519050610e0c8161162f565b92915050565b600081519050610e2181611646565b92915050565b600060208284031215610e3957600080fd5b6000610e4784828501610de8565b91505092915050565b600060208284031215610e6257600080fd5b6000610e7084828501610dfd565b91505092915050565b600060208284031215610e8b57600080fd5b6000610e9984828501610e12565b91505092915050565b610eab8161154b565b82525050565b610eba81611503565b82525050565b610ec9816114f1565b82525050565b6000610eda8261140f565b610ee48185611425565b9350610ef48185602086016115a5565b80840191505092915050565b610f098161155d565b82525050565b6000610f1a8261141a565b610f248185611430565b9350610f348185602086016115a5565b610f3d81611607565b840191505092915050565b6000610f55602683611430565b91507f4f776e61626c653a206e6577206f776e657220697320746865207a65726f206160008301527f64647265737300000000000000000000000000000000000000000000000000006020830152604082019050919050565b6000610fbb602683611430565b91507f416464726573733a20696e73756666696369656e742062616c616e636520666f60008301527f722063616c6c00000000000000000000000000000000000000000000000000006020830152604082019050919050565b6000611021602083611430565b91507f4f776e61626c653a2063616c6c6572206973206e6f7420746865206f776e65726000830152602082019050919050565b6000611061602a83611430565b91507f43726f776473616c653a2062656e656669636961727920697320746865207a6560008301527f726f2061646472657373000000000000000000000000000000000000000000006020830152604082019050919050565b60006110c7601d83611430565b91507f416464726573733a2063616c6c20746f206e6f6e2d636f6e74726163740000006000830152602082019050919050565b6000611107602a83611430565b91507f5361666545524332303a204552433230206f7065726174696f6e20646964206e60008301527f6f742073756363656564000000000000000000000000000000000000000000006020830152604082019050919050565b600061116d601f83611430565b91507f5265656e7472616e637947756172643a207265656e7472616e742063616c6c006000830152602082019050919050565b60006111ad601983611430565b91507f43726f776473616c653a20776569416d6f756e742069732030000000000000006000830152602082019050919050565b6111e981611541565b82525050565b60006111fb8284610ecf565b915081905092915050565b600060208201905061121b6000830184610ec0565b92915050565b60006020820190506112366000830184610eb1565b92915050565b60006040820190506112516000830185610ea2565b61125e60208301846111e0565b9392505050565b600060408201905061127a6000830185610ec0565b61128760208301846111e0565b9392505050565b60006020820190506112a36000830184610f00565b92915050565b600060208201905081810360008301526112c38184610f0f565b905092915050565b600060208201905081810360008301526112e481610f48565b9050919050565b6000602082019050818103600083015261130481610fae565b9050919050565b6000602082019050818103600083015261132481611014565b9050919050565b6000602082019050818103600083015261134481611054565b9050919050565b60006020820190508181036000830152611364816110ba565b9050919050565b60006020820190508181036000830152611384816110fa565b9050919050565b600060208201905081810360008301526113a481611160565b9050919050565b600060208201905081810360008301526113c4816111a0565b9050919050565b60006020820190506113e060008301846111e0565b92915050565b60006040820190506113fb60008301856111e0565b61140860208301846111e0565b9392505050565b600081519050919050565b600081519050919050565b600081905092915050565b600082825260208201905092915050565b600061144c82611541565b915061145783611541565b9250827fffffffffffffffffffffffffffffffffffffffffffffffffffffffffffffffff0382111561148c5761148b6115d8565b5b828201905092915050565b60006114a282611541565b91506114ad83611541565b9250817fffffffffffffffffffffffffffffffffffffffffffffffffffffffffffffffff04831182151516156114e6576114e56115d8565b5b828202905092915050565b60006114fc82611521565b9050919050565b600061150e82611521565b9050919050565b60008115159050919050565b600073ffffffffffffffffffffffffffffffffffffffff82169050919050565b6000819050919050565b600061155682611581565b9050919050565b60006115688261156f565b9050919050565b600061157a82611521565b9050919050565b600061158c82611593565b9050919050565b600061159e82611521565b9050919050565b60005b838110156115c35780820151818401526020810190506115a8565b838111156115d2576000848401525b50505050565b7f4e487b7100000000000000000000000000000000000000000000000000000000600052601160045260246000fd5b6000601f19601f8301169050919050565b611621816114f1565b811461162c57600080fd5b50565b61163881611515565b811461164357600080fd5b50565b61164f81611541565b811461165a57600080fd5b5056fea264697066735822122067ed9e2c5c802cfb04fae4ca967a36c2323ae8c13575f88ceca0cb40f2a43dae64736f6c63430008000033",
  "immutableReferences": {},
  "source": "// SPDX-License-Identifier: MIT\r\npragma solidity ^0.8.0;\r\n\r\nimport \"./GenericERC20.sol\";\r\nimport \"./IGenericERC20.sol\";\r\nimport \"@openzeppelin/contracts/utils/math/SafeMath.sol\";\r\nimport \"@openzeppelin/contracts/access/Ownable.sol\";\r\nimport \"@openzeppelin/contracts/token/ERC20/IERC20.sol\";\r\nimport \"./Crowdsale.sol\";\r\nimport \"./IBEP20.sol\";\r\n\r\ncontract GenericERC20ICOSale is Crowdsale, Ownable {\r\n    using SafeMath for uint256;\r\n\r\n    IERC20 public GE20;\r\n    address payable private _wallet;\r\n\r\n    constructor(\r\n        uint256 rate,\r\n        address payable wallet,\r\n        IERC20 token\r\n    ) public Crowdsale(rate, wallet, token) {\r\n        _wallet = payable(wallet);\r\n        GE20 = token;\r\n    }\r\n\r\n    function bnbRaised() public view returns (uint256) {\r\n        address payable self = payable(address(this));\r\n        uint256 bal = self.balance;\r\n        return bal;\r\n    }\r\n\r\n    function endSale() public onlyOwner {\r\n        uint256 bnb = bnbRaised();\r\n        _wallet.transfer(bnb);\r\n        require(\r\n            GE20.transfer(\r\n                _wallet,\r\n                GE20.balanceOf(address(this))\r\n            )\r\n        );\r\n    }\r\n}\r\n",
  "sourcePath": "H:\\erc-20-token\\erc-20-token\\contracts\\GenericERC20ICOSale.sol",
  "compiler": {
    "name": "solc",
    "version": "0.8.0+commit.c7dfd78e.Emscripten.clang"
  },
  "schemaVersion": "3.4.6",
  "updatedAt": "2022-09-20T16:01:28.282Z",
  "networkType": "ethereum",
  "devdoc": {
    "kind": "dev",
    "methods": {
      "buyTokens(address)": {
        "details": "low level token purchase ***DO NOT OVERRIDE*** This function has a non-reentrancy guard, so it shouldn't be called by another `nonReentrant` function.",
        "params": {
          "beneficiary": "Recipient of the token purchase"
        }
      },
      "owner()": {
        "details": "Returns the address of the current owner."
      },
      "rate()": {
        "returns": {
          "_0": "the number of token units a buyer gets per wei."
        }
      },
      "renounceOwnership()": {
        "details": "Leaves the contract without owner. It will not be possible to call `onlyOwner` functions anymore. Can only be called by the current owner. NOTE: Renouncing ownership will leave the contract without an owner, thereby removing any functionality that is only available to the owner."
      },
      "token()": {
        "returns": {
          "_0": "the token being sold."
        }
      },
      "transferOwnership(address)": {
        "details": "Transfers ownership of the contract to a new account (`newOwner`). Can only be called by the current owner."
      },
      "wallet()": {
        "returns": {
          "_0": "the address where funds are collected."
        }
      },
      "weiRaised()": {
        "returns": {
          "_0": "the amount of wei raised."
        }
      }
    },
    "version": 1
  },
  "userdoc": {
    "events": {
      "TokensPurchased(address,address,uint256,uint256)": {
        "notice": "Event for token purchase logging"
      }
    },
    "kind": "user",
    "methods": {},
    "version": 1
  }
}